{
  "_format": "hh-sol-artifact-1",
  "contractName": "Dex",
  "sourceName": "contracts/Dex.sol",
  "abi": [
    {
      "inputs": [],
      "stateMutability": "nonpayable",
      "type": "constructor"
    },
    {
      "anonymous": false,
      "inputs": [
        {
          "indexed": false,
          "internalType": "uint256",
          "name": "tradeId",
          "type": "uint256"
        },
        {
          "indexed": false,
          "internalType": "uint256",
          "name": "orderId",
          "type": "uint256"
        },
        {
          "indexed": true,
          "internalType": "bytes32",
          "name": "baseTicker",
          "type": "bytes32"
        },
        {
          "indexed": true,
          "internalType": "bytes32",
          "name": "quoteTicker",
          "type": "bytes32"
        },
        {
          "indexed": false,
          "internalType": "uint8",
          "name": "side",
          "type": "uint8"
        },
        {
          "indexed": false,
          "internalType": "address",
          "name": "buyer",
          "type": "address"
        },
        {
          "indexed": false,
          "internalType": "address",
          "name": "seller",
          "type": "address"
        },
        {
          "indexed": false,
          "internalType": "uint256",
          "name": "amount",
          "type": "uint256"
        },
        {
          "indexed": false,
          "internalType": "uint256",
          "name": "price",
          "type": "uint256"
        },
        {
          "indexed": true,
          "internalType": "uint256",
          "name": "date",
          "type": "uint256"
        }
      ],
      "name": "NewTrade",
      "type": "event"
    },
    {
      "inputs": [
        {
          "internalType": "bytes32",
          "name": "ticker",
          "type": "bytes32"
        },
        {
          "internalType": "address",
          "name": "tokenAddress",
          "type": "address"
        }
      ],
      "name": "addToken",
      "outputs": [],
      "stateMutability": "nonpayable",
      "type": "function"
    },
    {
      "inputs": [],
      "name": "admin",
      "outputs": [
        {
          "internalType": "address",
          "name": "",
          "type": "address"
        }
      ],
      "stateMutability": "view",
      "type": "function"
    },
    {
      "inputs": [
        {
          "internalType": "bytes32",
          "name": "ticker",
          "type": "bytes32"
        }
      ],
      "name": "approveQuoteToken",
      "outputs": [],
      "stateMutability": "nonpayable",
      "type": "function"
    },
    {
      "inputs": [
        {
          "internalType": "uint256",
          "name": "orderId",
          "type": "uint256"
        },
        {
          "internalType": "bytes32",
          "name": "baseTicker",
          "type": "bytes32"
        },
        {
          "internalType": "bytes32",
          "name": "quoteTicker",
          "type": "bytes32"
        },
        {
          "internalType": "enum Dex.Side",
          "name": "side",
          "type": "uint8"
        }
      ],
      "name": "cancelOrder",
      "outputs": [],
      "stateMutability": "nonpayable",
      "type": "function"
    },
    {
      "inputs": [
        {
          "internalType": "bytes32",
          "name": "baseTicker",
          "type": "bytes32"
        },
        {
          "internalType": "bytes32",
          "name": "quoteTicker",
          "type": "bytes32"
        },
        {
          "internalType": "uint256",
          "name": "amount",
          "type": "uint256"
        },
        {
          "internalType": "uint256",
          "name": "price",
          "type": "uint256"
        },
        {
          "internalType": "enum Dex.Side",
          "name": "side",
          "type": "uint8"
        }
      ],
      "name": "createLimitOrder",
      "outputs": [
        {
          "internalType": "uint256",
          "name": "",
          "type": "uint256"
        }
      ],
      "stateMutability": "nonpayable",
      "type": "function"
    },
    {
      "inputs": [
        {
          "internalType": "bytes32",
          "name": "baseTicker",
          "type": "bytes32"
        },
        {
          "internalType": "bytes32",
          "name": "quoteTicker",
          "type": "bytes32"
        },
        {
          "internalType": "uint256",
          "name": "amount",
          "type": "uint256"
        },
        {
          "internalType": "enum Dex.Side",
          "name": "side",
          "type": "uint8"
        }
      ],
      "name": "createMarketOrder",
      "outputs": [],
      "stateMutability": "nonpayable",
      "type": "function"
    },
    {
      "inputs": [
        {
          "internalType": "bytes32",
          "name": "ticker",
          "type": "bytes32"
        },
        {
          "internalType": "uint256",
          "name": "amount",
          "type": "uint256"
        }
      ],
      "name": "deposit",
      "outputs": [],
      "stateMutability": "nonpayable",
      "type": "function"
    },
    {
      "inputs": [
        {
          "internalType": "bytes32",
          "name": "baseTicker",
          "type": "bytes32"
        },
        {
          "internalType": "bytes32",
          "name": "quoteTicker",
          "type": "bytes32"
        },
        {
          "internalType": "uint8",
          "name": "side",
          "type": "uint8"
        }
      ],
      "name": "getOrderBook",
      "outputs": [
        {
          "components": [
            {
              "internalType": "uint256",
              "name": "id",
              "type": "uint256"
            },
            {
              "internalType": "enum Dex.Side",
              "name": "side",
              "type": "uint8"
            },
            {
              "internalType": "address",
              "name": "trader",
              "type": "address"
            },
            {
              "internalType": "bytes32",
              "name": "ticker",
              "type": "bytes32"
            },
            {
              "internalType": "uint256",
              "name": "amount",
              "type": "uint256"
            },
            {
              "internalType": "uint256",
              "name": "filled",
              "type": "uint256"
            },
            {
              "internalType": "uint256",
              "name": "price",
              "type": "uint256"
            },
            {
              "internalType": "uint256",
              "name": "date",
              "type": "uint256"
            }
          ],
          "internalType": "struct Dex.Order[]",
          "name": "",
          "type": "tuple[]"
        }
      ],
      "stateMutability": "view",
      "type": "function"
    },
    {
      "inputs": [],
      "name": "getQuotes",
      "outputs": [
        {
          "internalType": "bytes32[]",
          "name": "",
          "type": "bytes32[]"
        }
      ],
      "stateMutability": "view",
      "type": "function"
    },
    {
      "inputs": [],
      "name": "getTickers",
      "outputs": [
        {
          "internalType": "bytes32[]",
          "name": "",
          "type": "bytes32[]"
        }
      ],
      "stateMutability": "view",
      "type": "function"
    },
    {
      "inputs": [],
      "name": "getTokens",
      "outputs": [
        {
          "components": [
            {
              "internalType": "bytes32",
              "name": "ticker",
              "type": "bytes32"
            },
            {
              "internalType": "address",
              "name": "tokenAddress",
              "type": "address"
            }
          ],
          "internalType": "struct Dex.Token[]",
          "name": "",
          "type": "tuple[]"
        }
      ],
      "stateMutability": "view",
      "type": "function"
    },
    {
      "inputs": [
        {
          "internalType": "address",
          "name": "",
          "type": "address"
        },
        {
          "internalType": "bytes32",
          "name": "",
          "type": "bytes32"
        }
      ],
      "name": "inOrderAmount",
      "outputs": [
        {
          "internalType": "uint256",
          "name": "",
          "type": "uint256"
        }
      ],
      "stateMutability": "view",
      "type": "function"
    },
    {
      "inputs": [],
      "name": "nextOrderId",
      "outputs": [
        {
          "internalType": "uint256",
          "name": "",
          "type": "uint256"
        }
      ],
      "stateMutability": "view",
      "type": "function"
    },
    {
      "inputs": [],
      "name": "nextTradeId",
      "outputs": [
        {
          "internalType": "uint256",
          "name": "",
          "type": "uint256"
        }
      ],
      "stateMutability": "view",
      "type": "function"
    },
    {
      "inputs": [
        {
          "internalType": "bytes32",
          "name": "",
          "type": "bytes32"
        },
        {
          "internalType": "bytes32",
          "name": "",
          "type": "bytes32"
        },
        {
          "internalType": "uint8",
          "name": "",
          "type": "uint8"
        },
        {
          "internalType": "uint256",
          "name": "",
          "type": "uint256"
        }
      ],
      "name": "orderBook",
      "outputs": [
        {
          "internalType": "uint256",
          "name": "id",
          "type": "uint256"
        },
        {
          "internalType": "enum Dex.Side",
          "name": "side",
          "type": "uint8"
        },
        {
          "internalType": "address",
          "name": "trader",
          "type": "address"
        },
        {
          "internalType": "bytes32",
          "name": "ticker",
          "type": "bytes32"
        },
        {
          "internalType": "uint256",
          "name": "amount",
          "type": "uint256"
        },
        {
          "internalType": "uint256",
          "name": "filled",
          "type": "uint256"
        },
        {
          "internalType": "uint256",
          "name": "price",
          "type": "uint256"
        },
        {
          "internalType": "uint256",
          "name": "date",
          "type": "uint256"
        }
      ],
      "stateMutability": "view",
      "type": "function"
    },
    {
      "inputs": [
        {
          "internalType": "bytes32",
          "name": "",
          "type": "bytes32"
        }
      ],
      "name": "quoteTickers",
      "outputs": [
        {
          "internalType": "bool",
          "name": "",
          "type": "bool"
        }
      ],
      "stateMutability": "view",
      "type": "function"
    },
    {
      "inputs": [
        {
          "internalType": "uint256",
          "name": "",
          "type": "uint256"
        }
      ],
      "name": "tickers",
      "outputs": [
        {
          "internalType": "bytes32",
          "name": "",
          "type": "bytes32"
        }
      ],
      "stateMutability": "view",
      "type": "function"
    },
    {
      "inputs": [
        {
          "internalType": "bytes32",
          "name": "",
          "type": "bytes32"
        }
      ],
      "name": "tokens",
      "outputs": [
        {
          "internalType": "bytes32",
          "name": "ticker",
          "type": "bytes32"
        },
        {
          "internalType": "address",
          "name": "tokenAddress",
          "type": "address"
        }
      ],
      "stateMutability": "view",
      "type": "function"
    },
    {
      "inputs": [
        {
          "internalType": "address",
          "name": "",
          "type": "address"
        },
        {
          "internalType": "bytes32",
          "name": "",
          "type": "bytes32"
        }
      ],
      "name": "totalBalances",
      "outputs": [
        {
          "internalType": "uint256",
          "name": "",
          "type": "uint256"
        }
      ],
      "stateMutability": "view",
      "type": "function"
    },
    {
      "inputs": [
        {
          "internalType": "bytes32",
          "name": "ticker",
          "type": "bytes32"
        },
        {
          "internalType": "uint256",
          "name": "amount",
          "type": "uint256"
        }
      ],
      "name": "withdraw",
      "outputs": [],
      "stateMutability": "nonpayable",
      "type": "function"
    },
    {
      "stateMutability": "payable",
      "type": "receive"
    }
  ],
  "bytecode": "0x608060405234801561001057600080fd5b50336000806101000a81548173ffffffffffffffffffffffffffffffffffffffff021916908373ffffffffffffffffffffffffffffffffffffffff160217905550615b5c80620000616000396000f3fe6080604052600436106101235760003560e01c8063813ad083116100a0578063aa6ca80811610064578063aa6ca808146104a5578063c45c98e2146104d0578063ce61fa7f1461050d578063eded4e9a1461054a578063f851a44014610573576101b1565b8063813ad083146103bf578063904194a3146103ea5780639776aacf146104285780639787f99014610451578063a4204e391461047a576101b1565b806320460872116100e757806320460872146102b457806320babc6e146102f1578063227450db1461031a5780632a58b330146103575780634898b7e814610382576101b1565b806301068dea146101b6578063040cf020146101e15780630993221b1461020a5780630ce9ca081461024e5780631de26e161461028b576101b1565b366101b15734600460003373ffffffffffffffffffffffffffffffffffffffff1673ffffffffffffffffffffffffffffffffffffffff16815260200190815260200160002060007f4554480000000000000000000000000000000000000000000000000000000000815260200190815260200160002060008282546101a89190615439565b92505081905550005b600080fd5b3480156101c257600080fd5b506101cb61059e565b6040516101d89190614fd0565b60405180910390f35b3480156101ed57600080fd5b50610208600480360381019061020391906149b6565b6105f6565b005b34801561021657600080fd5b50610231600480360381019061022c9190614953565b61099e565b604051610245989796959493929190615290565b60405180910390f35b34801561025a57600080fd5b5061027560048036038101906102709190614760565b610a4a565b6040516102829190615275565b60405180910390f35b34801561029757600080fd5b506102b260048036038101906102ad91906149b6565b610a6f565b005b3480156102c057600080fd5b506102db60048036038101906102d69190614760565b610d1a565b6040516102e89190615275565b60405180910390f35b3480156102fd57600080fd5b5061031860048036038101906103139190614a1b565b610d3f565b005b34801561032657600080fd5b50610341600480360381019061033c91906147c5565b61158a565b60405161034e9190615036565b60405180910390f35b34801561036357600080fd5b5061036c6115aa565b6040516103799190615275565b60405180910390f35b34801561038e57600080fd5b506103a960048036038101906103a4919061488d565b6115b0565b6040516103b69190615275565b60405180910390f35b3480156103cb57600080fd5b506103d4612b72565b6040516103e19190615275565b60405180910390f35b3480156103f657600080fd5b50610411600480360381019061040c91906147c5565b612b78565b60405161041f92919061506c565b60405180910390f35b34801561043457600080fd5b5061044f600480360381019061044a91906147ee565b612bbc565b005b34801561045d57600080fd5b506104786004803603810190610473919061482a565b612dae565b005b34801561048657600080fd5b5061048f61382f565b60405161049c9190614fd0565b60405180910390f35b3480156104b157600080fd5b506104ba613a9c565b6040516104c79190615014565b60405180910390f35b3480156104dc57600080fd5b506104f760048036038101906104f291906149f2565b613c52565b6040516105049190615051565b60405180910390f35b34801561051957600080fd5b50610534600480360381019061052f9190614904565b613c76565b6040516105419190614ff2565b60405180910390f35b34801561055657600080fd5b50610571600480360381019061056c91906147c5565b613e2c565b005b34801561057f57600080fd5b5061058861401e565b6040516105959190614f55565b60405180910390f35b606060028054806020026020016040519081016040528092919081815260200182805480156105ec57602002820191906000526020600020905b8154815260200190600101908083116105d8575b5050505050905090565b817f45544800000000000000000000000000000000000000000000000000000000008114806106885750600073ffffffffffffffffffffffffffffffffffffffff166001600083815260200190815260200160002060010160009054906101000a900473ffffffffffffffffffffffffffffffffffffffff1673ffffffffffffffffffffffffffffffffffffffff1614155b6106c7576040517f08c379a00000000000000000000000000000000000000000000000000000000081526004016106be906151d5565b60405180910390fd5b816000811161070b576040517f08c379a0000000000000000000000000000000000000000000000000000000008152600401610702906150d5565b60405180910390fd5b82600560003373ffffffffffffffffffffffffffffffffffffffff1673ffffffffffffffffffffffffffffffffffffffff168152602001908152602001600020600086815260200190815260200160002054600460003373ffffffffffffffffffffffffffffffffffffffff1673ffffffffffffffffffffffffffffffffffffffff1681526020019081526020016000206000878152602001908152602001600020546107b8919061551a565b10156107f9576040517f08c379a00000000000000000000000000000000000000000000000000000000081526004016107f090615135565b60405180910390fd5b82600460003373ffffffffffffffffffffffffffffffffffffffff1673ffffffffffffffffffffffffffffffffffffffff16815260200190815260200160002060008681526020019081526020016000206000828254610859919061551a565b925050819055507f45544800000000000000000000000000000000000000000000000000000000008414610950576001600085815260200190815260200160002060010160009054906101000a900473ffffffffffffffffffffffffffffffffffffffff1673ffffffffffffffffffffffffffffffffffffffff1663a9059cbb33856040518363ffffffff1660e01b81526004016108f8929190614fa7565b602060405180830381600087803b15801561091257600080fd5b505af1158015610926573d6000803e3d6000fd5b505050506040513d601f19601f8201168201806040525081019061094a919061479c565b50610998565b3373ffffffffffffffffffffffffffffffffffffffff166108fc849081150290604051600060405180830381858888f19350505050158015610996573d6000803e3d6000fd5b505b50505050565b600660205283600052604060002060205282600052604060002060205281600052604060002081815481106109d257600080fd5b90600052602060002090600702016000935093505050508060000154908060010160009054906101000a900460ff16908060010160019054906101000a900473ffffffffffffffffffffffffffffffffffffffff16908060020154908060030154908060040154908060050154908060060154905088565b6005602052816000526040600020602052806000526040600020600091509150505481565b817f4554480000000000000000000000000000000000000000000000000000000000811480610b015750600073ffffffffffffffffffffffffffffffffffffffff166001600083815260200190815260200160002060010160009054906101000a900473ffffffffffffffffffffffffffffffffffffffff1673ffffffffffffffffffffffffffffffffffffffff1614155b610b40576040517f08c379a0000000000000000000000000000000000000000000000000000000008152600401610b37906151d5565b60405180910390fd5b8160008111610b84576040517f08c379a0000000000000000000000000000000000000000000000000000000008152600401610b7b906150d5565b60405180910390fd5b7f4554480000000000000000000000000000000000000000000000000000000000841415610be7576040517f08c379a0000000000000000000000000000000000000000000000000000000008152600401610bde90615235565b60405180910390fd5b6001600085815260200190815260200160002060010160009054906101000a900473ffffffffffffffffffffffffffffffffffffffff1673ffffffffffffffffffffffffffffffffffffffff166323b872dd3330866040518463ffffffff1660e01b8152600401610c5a93929190614f70565b602060405180830381600087803b158015610c7457600080fd5b505af1158015610c88573d6000803e3d6000fd5b505050506040513d601f19601f82011682018060405250810190610cac919061479c565b5082600460003373ffffffffffffffffffffffffffffffffffffffff1673ffffffffffffffffffffffffffffffffffffffff16815260200190815260200160002060008681526020019081526020016000206000828254610d0d9190615439565b9250508190555050505050565b6004602052816000526040600020602052806000526040600020600091509150505481565b827f4554480000000000000000000000000000000000000000000000000000000000811480610dd15750600073ffffffffffffffffffffffffffffffffffffffff166001600083815260200190815260200160002060010160009054906101000a900473ffffffffffffffffffffffffffffffffffffffff1673ffffffffffffffffffffffffffffffffffffffff1614155b610e10576040517f08c379a0000000000000000000000000000000000000000000000000000000008152600401610e07906151d5565b60405180910390fd5b826003600082815260200190815260200160002060009054906101000a900460ff16610e71576040517f08c379a0000000000000000000000000000000000000000000000000000000008152600401610e68906151f5565b60405180910390fd5b60008611610eb4576040517f08c379a0000000000000000000000000000000000000000000000000000000008152600401610eab90615175565b60405180910390fd5b83851415610ef7576040517f08c379a0000000000000000000000000000000000000000000000000000000008152600401610eee906151b5565b60405180910390fd5b60006006600086815260200190815260200160002060008781526020019081526020016000206000856001811115610f58577f4e487b7100000000000000000000000000000000000000000000000000000000600052602160045260246000fd5b60ff1660ff16815260200190815260200160002090506000805b828054905082101561148457801561112c57828281548110610fbd577f4e487b7100000000000000000000000000000000000000000000000000000000600052603260045260246000fd5b906000526020600020906007020183600184610fd9919061551a565b81548110611010577f4e487b7100000000000000000000000000000000000000000000000000000000600052603260045260246000fd5b9060005260206000209060070201600082015481600001556001820160009054906101000a900460ff168160010160006101000a81548160ff02191690836001811115611086577f4e487b7100000000000000000000000000000000000000000000000000000000600052602160045260246000fd5b02179055506001820160019054906101000a900473ffffffffffffffffffffffffffffffffffffffff168160010160016101000a81548173ffffffffffffffffffffffffffffffffffffffff021916908373ffffffffffffffffffffffffffffffffffffffff1602179055506002820154816002015560038201548160030155600482015481600401556005820154816005015560068201548160060155905050611473565b88838381548110611166577f4e487b7100000000000000000000000000000000000000000000000000000000600052603260045260246000fd5b90600052602060002090600702016000015414156114725760019050600060018111156111bc577f4e487b7100000000000000000000000000000000000000000000000000000000600052602160045260246000fd5b8660018111156111f5577f4e487b7100000000000000000000000000000000000000000000000000000000600052602160045260246000fd5b141561136a57633b9aca00838381548110611239577f4e487b7100000000000000000000000000000000000000000000000000000000600052603260045260246000fd5b906000526020600020906007020160040154848481548110611284577f4e487b7100000000000000000000000000000000000000000000000000000000600052603260045260246000fd5b9060005260206000209060070201600301546112a0919061551a565b8484815481106112d9577f4e487b7100000000000000000000000000000000000000000000000000000000600052603260045260246000fd5b9060005260206000209060070201600501546112f591906154c0565b6112ff919061548f565b600560003373ffffffffffffffffffffffffffffffffffffffff1673ffffffffffffffffffffffffffffffffffffffff1681526020019081526020016000206000898152602001908152602001600020600082825461135e919061551a565b92505081905550611471565b8282815481106113a3577f4e487b7100000000000000000000000000000000000000000000000000000000600052603260045260246000fd5b9060005260206000209060070201600401548383815481106113ee577f4e487b7100000000000000000000000000000000000000000000000000000000600052603260045260246000fd5b90600052602060002090600702016003015461140a919061551a565b600560003373ffffffffffffffffffffffffffffffffffffffff1673ffffffffffffffffffffffffffffffffffffffff16815260200190815260200160002060008a81526020019081526020016000206000828254611469919061551a565b925050819055505b5b5b8161147d906155fc565b9150610f72565b806114c4576040517f08c379a00000000000000000000000000000000000000000000000000000000081526004016114bb90615215565b60405180910390fd5b828054806114fb577f4e487b7100000000000000000000000000000000000000000000000000000000600052603160045260246000fd5b60019003818190600052602060002090600702016000808201600090556001820160006101000a81549060ff02191690556001820160016101000a81549073ffffffffffffffffffffffffffffffffffffffff02191690556002820160009055600382016000905560048201600090556005820160009055600682016000905550509055505050505050505050565b60036020528060005260406000206000915054906101000a900460ff1681565b60075481565b6000857f45544800000000000000000000000000000000000000000000000000000000008114806116445750600073ffffffffffffffffffffffffffffffffffffffff166001600083815260200190815260200160002060010160009054906101000a900473ffffffffffffffffffffffffffffffffffffffff1673ffffffffffffffffffffffffffffffffffffffff1614155b611683576040517f08c379a000000000000000000000000000000000000000000000000000000000815260040161167a906151d5565b60405180910390fd5b856003600082815260200190815260200160002060009054906101000a900460ff166116e4576040517f08c379a00000000000000000000000000000000000000000000000000000000081526004016116db906151f5565b60405180910390fd5b8560008111611728576040517f08c379a000000000000000000000000000000000000000000000000000000000815260040161171f906150d5565b60405180910390fd5b8789141561176b576040517f08c379a0000000000000000000000000000000000000000000000000000000008152600401611762906151b5565b60405180910390fd5b600086116117ae576040517f08c379a00000000000000000000000000000000000000000000000000000000081526004016117a590615155565b60405180910390fd5b600060018111156117e8577f4e487b7100000000000000000000000000000000000000000000000000000000600052602160045260246000fd5b856001811115611821577f4e487b7100000000000000000000000000000000000000000000000000000000600052602160045260246000fd5b141561193457633b9aca00878761183891906154c0565b611842919061548f565b600560003373ffffffffffffffffffffffffffffffffffffffff1673ffffffffffffffffffffffffffffffffffffffff16815260200190815260200160002060008a815260200190815260200160002054600460003373ffffffffffffffffffffffffffffffffffffffff1673ffffffffffffffffffffffffffffffffffffffff16815260200190815260200160002060008b8152602001908152602001600020546118ee919061551a565b101561192f576040517f08c379a000000000000000000000000000000000000000000000000000000000815260040161192690615115565b60405180910390fd5b611a23565b86600560003373ffffffffffffffffffffffffffffffffffffffff1673ffffffffffffffffffffffffffffffffffffffff16815260200190815260200160002060008b815260200190815260200160002054600460003373ffffffffffffffffffffffffffffffffffffffff1673ffffffffffffffffffffffffffffffffffffffff16815260200190815260200160002060008c8152602001908152602001600020546119e1919061551a565b1015611a22576040517f08c379a0000000000000000000000000000000000000000000000000000000008152600401611a1990615195565b60405180910390fd5b5b6000600660008a815260200190815260200160002060008b81526020019081526020016000206000806001811115611a84577f4e487b7100000000000000000000000000000000000000000000000000000000600052602160045260246000fd5b886001811115611abd577f4e487b7100000000000000000000000000000000000000000000000000000000600052602160045260246000fd5b14611ac9576000611acc565b60015b6001811115611b04577f4e487b7100000000000000000000000000000000000000000000000000000000600052602160045260246000fd5b60ff1660ff168152602001908152602001600020905060008180549050905060008990505b600082118015611b395750600081115b156120f2578180611b49906155d2565b92505060006001811115611b86577f4e487b7100000000000000000000000000000000000000000000000000000000600052602160045260246000fd5b886001811115611bbf577f4e487b7100000000000000000000000000000000000000000000000000000000600052602160045260246000fd5b148015611c165750828281548110611c00577f4e487b7100000000000000000000000000000000000000000000000000000000600052603260045260246000fd5b9060005260206000209060070201600501548910155b80611ce65750600180811115611c55577f4e487b7100000000000000000000000000000000000000000000000000000000600052602160045260246000fd5b886001811115611c8e577f4e487b7100000000000000000000000000000000000000000000000000000000600052602160045260246000fd5b148015611ce55750828281548110611ccf577f4e487b7100000000000000000000000000000000000000000000000000000000600052603260045260246000fd5b9060005260206000209060070201600501548911155b5b156120e8576000838381548110611d26577f4e487b7100000000000000000000000000000000000000000000000000000000600052603260045260246000fd5b906000526020600020906007020160040154848481548110611d71577f4e487b7100000000000000000000000000000000000000000000000000000000600052603260045260246000fd5b906000526020600020906007020160030154611d8d919061551a565b90506000828211611d9e5781611da0565b825b90508083611dae919061551a565b925080858581548110611dea577f4e487b7100000000000000000000000000000000000000000000000000000000600052603260045260246000fd5b90600052602060002090600702016004016000828254611e0a9190615439565b92505081905550611f89858581548110611e4d577f4e487b7100000000000000000000000000000000000000000000000000000000600052603260045260246000fd5b906000526020600020906007020160405180610100016040529081600082015481526020016001820160009054906101000a900460ff166001811115611ebc577f4e487b7100000000000000000000000000000000000000000000000000000000600052602160045260246000fd5b6001811115611ef4577f4e487b7100000000000000000000000000000000000000000000000000000000600052602160045260246000fd5b81526020016001820160019054906101000a900473ffffffffffffffffffffffffffffffffffffffff1673ffffffffffffffffffffffffffffffffffffffff1673ffffffffffffffffffffffffffffffffffffffff168152602001600282015481526020016003820154815260200160048201548152602001600582015481526020016006820154815250508f8f8d85614042565b848481548110611fc2577f4e487b7100000000000000000000000000000000000000000000000000000000600052603260045260246000fd5b90600052602060002090600702016003015485858154811061200d577f4e487b7100000000000000000000000000000000000000000000000000000000600052603260045260246000fd5b90600052602060002090600702016004015414156120e1578480548061205c577f4e487b7100000000000000000000000000000000000000000000000000000000600052603160045260246000fd5b60019003818190600052602060002090600702016000808201600090556001820160006101000a81549060ff02191690556001820160016101000a81549073ffffffffffffffffffffffffffffffffffffffff021916905560028201600090556003820160009055600482016000905560058201600090556006820160009055505090555b50506120ed565b6120f2565b611b29565b6000811115612b5e576000600660008d815260200190815260200160002060008e815260200190815260200160002060008a600181111561215c577f4e487b7100000000000000000000000000000000000000000000000000000000600052602160045260246000fd5b60ff1660ff168152602001908152602001600020905060076000815480929190612185906155fc565b91905055508060405180610100016040528060075481526020018b60018111156121d8577f4e487b7100000000000000000000000000000000000000000000000000000000600052602160045260246000fd5b81526020013373ffffffffffffffffffffffffffffffffffffffff1681526020018f81526020018d8152602001848e612211919061551a565b81526020018c81526020014281525090806001815401808255809150506001900390600052602060002090600702016000909190919091506000820151816000015560208201518160010160006101000a81548160ff021916908360018111156122a4577f4e487b7100000000000000000000000000000000000000000000000000000000600052602160045260246000fd5b021790555060408201518160010160016101000a81548173ffffffffffffffffffffffffffffffffffffffff021916908373ffffffffffffffffffffffffffffffffffffffff160217905550606082015181600201556080820151816003015560a0820151816004015560c0820151816005015560e0820151816006015550506000600181111561235e577f4e487b7100000000000000000000000000000000000000000000000000000000600052602160045260246000fd5b896001811115612397577f4e487b7100000000000000000000000000000000000000000000000000000000600052602160045260246000fd5b141561242357633b9aca00828b6123ae91906154c0565b6123b8919061548f565b600560003373ffffffffffffffffffffffffffffffffffffffff1673ffffffffffffffffffffffffffffffffffffffff16815260200190815260200160002060008e815260200190815260200160002060008282546124179190615439565b9250508190555061248b565b81600560003373ffffffffffffffffffffffffffffffffffffffff1673ffffffffffffffffffffffffffffffffffffffff16815260200190815260200160002060008f815260200190815260200160002060008282546124839190615439565b925050819055505b6001818054905061249c919061551a565b92505b6000831115612b5057600060018111156124e2577f4e487b7100000000000000000000000000000000000000000000000000000000600052602160045260246000fd5b89600181111561251b577f4e487b7100000000000000000000000000000000000000000000000000000000600052602160045260246000fd5b1480156125c7575080838154811061255c577f4e487b7100000000000000000000000000000000000000000000000000000000600052603260045260246000fd5b9060005260206000209060070201600501548160018561257c919061551a565b815481106125b3577f4e487b7100000000000000000000000000000000000000000000000000000000600052603260045260246000fd5b906000526020600020906007020160050154105b156125d157612b50565b60018081111561260a577f4e487b7100000000000000000000000000000000000000000000000000000000600052602160045260246000fd5b896001811115612643577f4e487b7100000000000000000000000000000000000000000000000000000000600052602160045260246000fd5b1480156126ef5750808381548110612684577f4e487b7100000000000000000000000000000000000000000000000000000000600052603260045260246000fd5b906000526020600020906007020160050154816001856126a4919061551a565b815481106126db577f4e487b7100000000000000000000000000000000000000000000000000000000600052603260045260246000fd5b906000526020600020906007020160050154115b156126f957612b50565b600081600185612709919061551a565b81548110612740577f4e487b7100000000000000000000000000000000000000000000000000000000600052603260045260246000fd5b906000526020600020906007020160405180610100016040529081600082015481526020016001820160009054906101000a900460ff1660018111156127af577f4e487b7100000000000000000000000000000000000000000000000000000000600052602160045260246000fd5b60018111156127e7577f4e487b7100000000000000000000000000000000000000000000000000000000600052602160045260246000fd5b81526020016001820160019054906101000a900473ffffffffffffffffffffffffffffffffffffffff1673ffffffffffffffffffffffffffffffffffffffff1673ffffffffffffffffffffffffffffffffffffffff1681526020016002820154815260200160038201548152602001600482015481526020016005820154815260200160068201548152505090508184815481106128ae577f4e487b7100000000000000000000000000000000000000000000000000000000600052603260045260246000fd5b9060005260206000209060070201826001866128ca919061551a565b81548110612901577f4e487b7100000000000000000000000000000000000000000000000000000000600052603260045260246000fd5b9060005260206000209060070201600082015481600001556001820160009054906101000a900460ff168160010160006101000a81548160ff02191690836001811115612977577f4e487b7100000000000000000000000000000000000000000000000000000000600052602160045260246000fd5b02179055506001820160019054906101000a900473ffffffffffffffffffffffffffffffffffffffff168160010160016101000a81548173ffffffffffffffffffffffffffffffffffffffff021916908373ffffffffffffffffffffffffffffffffffffffff160217905550600282015481600201556003820154816003015560048201548160040155600582015481600501556006820154816006015590505080828581548110612a52577f4e487b7100000000000000000000000000000000000000000000000000000000600052603260045260246000fd5b90600052602060002090600702016000820151816000015560208201518160010160006101000a81548160ff02191690836001811115612abb577f4e487b7100000000000000000000000000000000000000000000000000000000600052602160045260246000fd5b021790555060408201518160010160016101000a81548173ffffffffffffffffffffffffffffffffffffffff021916908373ffffffffffffffffffffffffffffffffffffffff160217905550606082015181600201556080820151816003015560a0820151816004015560c0820151816005015560e082015181600601559050508380612b47906155d2565b9450505061249f565b600754975050505050612b66565b600096505050505b50505095945050505050565b60085481565b60016020528060005260406000206000915090508060000154908060010160009054906101000a900473ffffffffffffffffffffffffffffffffffffffff16905082565b60008054906101000a900473ffffffffffffffffffffffffffffffffffffffff1673ffffffffffffffffffffffffffffffffffffffff163373ffffffffffffffffffffffffffffffffffffffff1614612c4a576040517f08c379a0000000000000000000000000000000000000000000000000000000008152600401612c41906150b5565b60405180910390fd5b600073ffffffffffffffffffffffffffffffffffffffff166001600084815260200190815260200160002060010160009054906101000a900473ffffffffffffffffffffffffffffffffffffffff1673ffffffffffffffffffffffffffffffffffffffff1614612cef576040517f08c379a0000000000000000000000000000000000000000000000000000000008152600401612ce690615255565b60405180910390fd5b60405180604001604052808381526020018273ffffffffffffffffffffffffffffffffffffffff16815250600160008481526020019081526020016000206000820151816000015560208201518160010160006101000a81548173ffffffffffffffffffffffffffffffffffffffff021916908373ffffffffffffffffffffffffffffffffffffffff16021790555090505060028290806001815401808255809150506001900390600052602060002001600090919091909150555050565b837f4554480000000000000000000000000000000000000000000000000000000000811480612e405750600073ffffffffffffffffffffffffffffffffffffffff166001600083815260200190815260200160002060010160009054906101000a900473ffffffffffffffffffffffffffffffffffffffff1673ffffffffffffffffffffffffffffffffffffffff1614155b612e7f576040517f08c379a0000000000000000000000000000000000000000000000000000000008152600401612e76906151d5565b60405180910390fd5b836003600082815260200190815260200160002060009054906101000a900460ff16612ee0576040517f08c379a0000000000000000000000000000000000000000000000000000000008152600401612ed7906151f5565b60405180910390fd5b84861415612f23576040517f08c379a0000000000000000000000000000000000000000000000000000000008152600401612f1a906151b5565b60405180910390fd5b60008411612f66576040517f08c379a0000000000000000000000000000000000000000000000000000000008152600401612f5d906150d5565b60405180910390fd5b600180811115612f9f577f4e487b7100000000000000000000000000000000000000000000000000000000600052602160045260246000fd5b836001811115612fd8577f4e487b7100000000000000000000000000000000000000000000000000000000600052602160045260246000fd5b14156130cd5783600560003373ffffffffffffffffffffffffffffffffffffffff1673ffffffffffffffffffffffffffffffffffffffff168152602001908152602001600020600088815260200190815260200160002054600460003373ffffffffffffffffffffffffffffffffffffffff1673ffffffffffffffffffffffffffffffffffffffff16815260200190815260200160002060008981526020019081526020016000205461308b919061551a565b10156130cc576040517f08c379a00000000000000000000000000000000000000000000000000000000081526004016130c390615195565b60405180910390fd5b5b6000600660008781526020019081526020016000206000888152602001908152602001600020600080600181111561312e577f4e487b7100000000000000000000000000000000000000000000000000000000600052602160045260246000fd5b866001811115613167577f4e487b7100000000000000000000000000000000000000000000000000000000600052602160045260246000fd5b14613173576000613176565b60015b60018111156131ae577f4e487b7100000000000000000000000000000000000000000000000000000000600052602160045260246000fd5b60ff1660ff1681526020019081526020016000209050600081805490501161320b576040517f08c379a0000000000000000000000000000000000000000000000000000000008152600401613202906150f5565b60405180910390fd5b60008180549050905060008690505b60008211801561322a5750600081115b156136ae57818061323a906155d2565b9250506000838381548110613278577f4e487b7100000000000000000000000000000000000000000000000000000000600052603260045260246000fd5b9060005260206000209060070201600401548484815481106132c3577f4e487b7100000000000000000000000000000000000000000000000000000000600052603260045260246000fd5b9060005260206000209060070201600301546132df919061551a565b905060008282116132f057816132f2565b825b90508083613300919061551a565b92508085858154811061333c577f4e487b7100000000000000000000000000000000000000000000000000000000600052603260045260246000fd5b9060005260206000209060070201600401600082825461335c9190615439565b925050819055506000600181111561339d577f4e487b7100000000000000000000000000000000000000000000000000000000600052602160045260246000fd5b8860018111156133d6577f4e487b7100000000000000000000000000000000000000000000000000000000600052602160045260246000fd5b141561352f57633b9aca0085858154811061341a577f4e487b7100000000000000000000000000000000000000000000000000000000600052603260045260246000fd5b9060005260206000209060070201600501548261343791906154c0565b613441919061548f565b600560003373ffffffffffffffffffffffffffffffffffffffff1673ffffffffffffffffffffffffffffffffffffffff16815260200190815260200160002060008c815260200190815260200160002054600460003373ffffffffffffffffffffffffffffffffffffffff1673ffffffffffffffffffffffffffffffffffffffff16815260200190815260200160002060008d8152602001908152602001600020546134ed919061551a565b101561352e576040517f08c379a000000000000000000000000000000000000000000000000000000000815260040161352590615115565b60405180910390fd5b5b6136a785858154811061356b577f4e487b7100000000000000000000000000000000000000000000000000000000600052603260045260246000fd5b906000526020600020906007020160405180610100016040529081600082015481526020016001820160009054906101000a900460ff1660018111156135da577f4e487b7100000000000000000000000000000000000000000000000000000000600052602160045260246000fd5b6001811115613612577f4e487b7100000000000000000000000000000000000000000000000000000000600052602160045260246000fd5b81526020016001820160019054906101000a900473ffffffffffffffffffffffffffffffffffffffff1673ffffffffffffffffffffffffffffffffffffffff1673ffffffffffffffffffffffffffffffffffffffff168152602001600282015481526020016003820154815260200160048201548152602001600582015481526020016006820154815250508c8c8b85614042565b505061321a565b828054905091505b81806136c1906155d2565b9250508282815481106136fd577f4e487b7100000000000000000000000000000000000000000000000000000000600052603260045260246000fd5b906000526020600020906007020160030154838381548110613748577f4e487b7100000000000000000000000000000000000000000000000000000000600052603260045260246000fd5b906000526020600020906007020160040154141561381c5782805480613797577f4e487b7100000000000000000000000000000000000000000000000000000000600052603160045260246000fd5b60019003818190600052602060002090600702016000808201600090556001820160006101000a81549060ff02191690556001820160016101000a81549073ffffffffffffffffffffffffffffffffffffffff021916905560028201600090556003820160009055600482016000905560058201600090556006820160009055505090555b600082116136b657505050505050505050565b6060600060016002805490506138459190615439565b67ffffffffffffffff811115613884577f4e487b7100000000000000000000000000000000000000000000000000000000600052604160045260246000fd5b6040519080825280602002602001820160405280156138b25781602001602082028036833780820191505090505b5090506000805b6002805490508110156139da576003600060028381548110613904577f4e487b7100000000000000000000000000000000000000000000000000000000600052603260045260246000fd5b9060005260206000200154815260200190815260200160002060009054906101000a900460ff16156139c7576002818154811061396a577f4e487b7100000000000000000000000000000000000000000000000000000000600052603260045260246000fd5b9060005260206000200154838380613981906155fc565b9450815181106139ba577f4e487b7100000000000000000000000000000000000000000000000000000000600052603260045260246000fd5b6020026020010181815250505b80806139d2906155fc565b9150506138b9565b50600360007f4554480000000000000000000000000000000000000000000000000000000000815260200190815260200160002060009054906101000a900460ff1615613a94577f4554480000000000000000000000000000000000000000000000000000000000828280613a4e906155fc565b935081518110613a87577f4e487b7100000000000000000000000000000000000000000000000000000000600052603260045260246000fd5b6020026020010181815250505b819250505090565b6060600060028054905067ffffffffffffffff811115613ae5577f4e487b7100000000000000000000000000000000000000000000000000000000600052604160045260246000fd5b604051908082528060200260200182016040528015613b1e57816020015b613b0b6146af565b815260200190600190039081613b035790505b50905060005b600280549050811015613c4a576001600060028381548110613b6f577f4e487b7100000000000000000000000000000000000000000000000000000000600052603260045260246000fd5b90600052602060002001548152602001908152602001600020604051806040016040529081600082015481526020016001820160009054906101000a900473ffffffffffffffffffffffffffffffffffffffff1673ffffffffffffffffffffffffffffffffffffffff1673ffffffffffffffffffffffffffffffffffffffff1681525050828281518110613c2c577f4e487b7100000000000000000000000000000000000000000000000000000000600052603260045260246000fd5b60200260200101819052508080613c42906155fc565b915050613b24565b508091505090565b60028181548110613c6257600080fd5b906000526020600020016000915090505481565b606060066000848152602001908152602001600020600085815260200190815260200160002060008360ff1660ff168152602001908152602001600020805480602002602001604051908101604052809291908181526020016000905b82821015613e1f578382906000526020600020906007020160405180610100016040529081600082015481526020016001820160009054906101000a900460ff166001811115613d4c577f4e487b7100000000000000000000000000000000000000000000000000000000600052602160045260246000fd5b6001811115613d84577f4e487b7100000000000000000000000000000000000000000000000000000000600052602160045260246000fd5b81526020016001820160019054906101000a900473ffffffffffffffffffffffffffffffffffffffff1673ffffffffffffffffffffffffffffffffffffffff1673ffffffffffffffffffffffffffffffffffffffff1681526020016002820154815260200160038201548152602001600482015481526020016005820154815260200160068201548152505081526020019060010190613cd3565b5050505090509392505050565b60008054906101000a900473ffffffffffffffffffffffffffffffffffffffff1673ffffffffffffffffffffffffffffffffffffffff163373ffffffffffffffffffffffffffffffffffffffff1614613eba576040517f08c379a0000000000000000000000000000000000000000000000000000000008152600401613eb1906150b5565b60405180910390fd5b600015156003600083815260200190815260200160002060009054906101000a900460ff16151514613f21576040517f08c379a0000000000000000000000000000000000000000000000000000000008152600401613f1890615095565b60405180910390fd5b7f45544800000000000000000000000000000000000000000000000000000000008114613fef57600073ffffffffffffffffffffffffffffffffffffffff166001600083815260200190815260200160002060010160009054906101000a900473ffffffffffffffffffffffffffffffffffffffff1673ffffffffffffffffffffffffffffffffffffffff161415613fee576040517f08c379a0000000000000000000000000000000000000000000000000000000008152600401613fe5906151d5565b60405180910390fd5b5b60016003600083815260200190815260200160002060006101000a81548160ff02191690831515021790555050565b60008054906101000a900473ffffffffffffffffffffffffffffffffffffffff1681565b4283857fc2bdaa396528f1ec0e369c27b6b77e5c3767bf35b9ad5c68a5a13bf443e5aee660085489600001518760018111156140a7577f4e487b7100000000000000000000000000000000000000000000000000000000600052602160045260246000fd5b600060018111156140e1577f4e487b7100000000000000000000000000000000000000000000000000000000600052602160045260246000fd5b89600181111561411a577f4e487b7100000000000000000000000000000000000000000000000000000000600052602160045260246000fd5b14614129578b6040015161412b565b335b60006001811115614165577f4e487b7100000000000000000000000000000000000000000000000000000000600052602160045260246000fd5b8a600181111561419e577f4e487b7100000000000000000000000000000000000000000000000000000000600052602160045260246000fd5b146141a957336141af565b8c604001515b898e60c001516040516141c8979695949392919061530e565b60405180910390a4600860008154809291906141e3906155fc565b91905055506000633b9aca008660c00151836141ff91906154c0565b614209919061548f565b9050600180811115614244577f4e487b7100000000000000000000000000000000000000000000000000000000600052602160045260246000fd5b83600181111561427d577f4e487b7100000000000000000000000000000000000000000000000000000000600052602160045260246000fd5b14156144975781600460003373ffffffffffffffffffffffffffffffffffffffff1673ffffffffffffffffffffffffffffffffffffffff168152602001908152602001600020600087815260200190815260200160002060008282546142e3919061551a565b9250508190555080600460003373ffffffffffffffffffffffffffffffffffffffff1673ffffffffffffffffffffffffffffffffffffffff1681526020019081526020016000206000868152602001908152602001600020600082825461434a9190615439565b925050819055508160046000886040015173ffffffffffffffffffffffffffffffffffffffff1673ffffffffffffffffffffffffffffffffffffffff168152602001908152602001600020600087815260200190815260200160002060008282546143b59190615439565b925050819055508060046000886040015173ffffffffffffffffffffffffffffffffffffffff1673ffffffffffffffffffffffffffffffffffffffff16815260200190815260200160002060008681526020019081526020016000206000828254614420919061551a565b925050819055508060056000886040015173ffffffffffffffffffffffffffffffffffffffff1673ffffffffffffffffffffffffffffffffffffffff1681526020019081526020016000206000868152602001908152602001600020600082825461448b919061551a565b925050819055506146a7565b81600460003373ffffffffffffffffffffffffffffffffffffffff1673ffffffffffffffffffffffffffffffffffffffff168152602001908152602001600020600087815260200190815260200160002060008282546144f79190615439565b9250508190555080600460003373ffffffffffffffffffffffffffffffffffffffff1673ffffffffffffffffffffffffffffffffffffffff1681526020019081526020016000206000868152602001908152602001600020600082825461455e919061551a565b925050819055508160046000886040015173ffffffffffffffffffffffffffffffffffffffff1673ffffffffffffffffffffffffffffffffffffffff168152602001908152602001600020600087815260200190815260200160002060008282546145c9919061551a565b925050819055508060046000886040015173ffffffffffffffffffffffffffffffffffffffff1673ffffffffffffffffffffffffffffffffffffffff168152602001908152602001600020600086815260200190815260200160002060008282546146349190615439565b925050819055508160056000886040015173ffffffffffffffffffffffffffffffffffffffff1673ffffffffffffffffffffffffffffffffffffffff1681526020019081526020016000206000878152602001908152602001600020600082825461469f919061551a565b925050819055505b505050505050565b604051806040016040528060008019168152602001600073ffffffffffffffffffffffffffffffffffffffff1681525090565b6000813590506146f181615aa3565b92915050565b60008151905061470681615aba565b92915050565b60008135905061471b81615ad1565b92915050565b60008135905061473081615ae8565b92915050565b60008135905061474581615af8565b92915050565b60008135905061475a81615b0f565b92915050565b6000806040838503121561477357600080fd5b6000614781858286016146e2565b92505060206147928582860161470c565b9150509250929050565b6000602082840312156147ae57600080fd5b60006147bc848285016146f7565b91505092915050565b6000602082840312156147d757600080fd5b60006147e58482850161470c565b91505092915050565b6000806040838503121561480157600080fd5b600061480f8582860161470c565b9250506020614820858286016146e2565b9150509250929050565b6000806000806080858703121561484057600080fd5b600061484e8782880161470c565b945050602061485f8782880161470c565b935050604061487087828801614736565b925050606061488187828801614721565b91505092959194509250565b600080600080600060a086880312156148a557600080fd5b60006148b38882890161470c565b95505060206148c48882890161470c565b94505060406148d588828901614736565b93505060606148e688828901614736565b92505060806148f788828901614721565b9150509295509295909350565b60008060006060848603121561491957600080fd5b60006149278682870161470c565b93505060206149388682870161470c565b92505060406149498682870161474b565b9150509250925092565b6000806000806080858703121561496957600080fd5b60006149778782880161470c565b94505060206149888782880161470c565b93505060406149998782880161474b565b92505060606149aa87828801614736565b91505092959194509250565b600080604083850312156149c957600080fd5b60006149d78582860161470c565b92505060206149e885828601614736565b9150509250929050565b600060208284031215614a0457600080fd5b6000614a1284828501614736565b91505092915050565b60008060008060808587031215614a3157600080fd5b6000614a3f87828801614736565b9450506020614a508782880161470c565b9350506040614a618782880161470c565b9250506060614a7287828801614721565b91505092959194509250565b6000614a8a8383614c0e565b60208301905092915050565b6000614aa28383614e57565b6101008301905092915050565b6000614abb8383614ef9565b60408301905092915050565b614ad08161554e565b82525050565b614adf8161554e565b82525050565b6000614af0826153ad565b614afa81856153f5565b9350614b058361537d565b8060005b83811015614b36578151614b1d8882614a7e565b9750614b28836153ce565b925050600181019050614b09565b5085935050505092915050565b6000614b4e826153b8565b614b588185615406565b9350614b638361538d565b8060005b83811015614b94578151614b7b8882614a96565b9750614b86836153db565b925050600181019050614b67565b5085935050505092915050565b6000614bac826153c3565b614bb68185615417565b9350614bc18361539d565b8060005b83811015614bf2578151614bd98882614aaf565b9750614be4836153e8565b925050600181019050614bc5565b5085935050505092915050565b614c0881615560565b82525050565b614c178161556c565b82525050565b614c268161556c565b82525050565b614c35816155c0565b82525050565b614c44816155c0565b82525050565b6000614c57602783615428565b9150614c62826156d2565b604082019050919050565b6000614c7a602183615428565b9150614c8582615721565b604082019050919050565b6000614c9d601d83615428565b9150614ca882615770565b602082019050919050565b6000614cc0602583615428565b9150614ccb82615799565b604082019050919050565b6000614ce3602a83615428565b9150614cee826157e8565b604082019050919050565b6000614d06601e83615428565b9150614d1182615837565b602082019050919050565b6000614d29601683615428565b9150614d3482615860565b602082019050919050565b6000614d4c601083615428565b9150614d5782615889565b602082019050919050565b6000614d6f602983615428565b9150614d7a826158b2565b604082019050919050565b6000614d92602883615428565b9150614d9d82615901565b604082019050919050565b6000614db5601a83615428565b9150614dc082615950565b602082019050919050565b6000614dd8602183615428565b9150614de382615979565b604082019050919050565b6000614dfb600f83615428565b9150614e06826159c8565b602082019050919050565b6000614e1e603d83615428565b9150614e29826159f1565b604082019050919050565b6000614e41603183615428565b9150614e4c82615a40565b604082019050919050565b61010082016000820151614e6e6000850182614f28565b506020820151614e816020850182614c2c565b506040820151614e946040850182614ac7565b506060820151614ea76060850182614c0e565b506080820151614eba6080850182614f28565b5060a0820151614ecd60a0850182614f28565b5060c0820151614ee060c0850182614f28565b5060e0820151614ef360e0850182614f28565b50505050565b604082016000820151614f0f6000850182614c0e565b506020820151614f226020850182614ac7565b50505050565b614f31816155a9565b82525050565b614f40816155a9565b82525050565b614f4f816155b3565b82525050565b6000602082019050614f6a6000830184614ad6565b92915050565b6000606082019050614f856000830186614ad6565b614f926020830185614ad6565b614f9f6040830184614f37565b949350505050565b6000604082019050614fbc6000830185614ad6565b614fc96020830184614f37565b9392505050565b60006020820190508181036000830152614fea8184614ae5565b905092915050565b6000602082019050818103600083015261500c8184614b43565b905092915050565b6000602082019050818103600083015261502e8184614ba1565b905092915050565b600060208201905061504b6000830184614bff565b92915050565b60006020820190506150666000830184614c1d565b92915050565b60006040820190506150816000830185614c1d565b61508e6020830184614ad6565b9392505050565b600060208201905081810360008301526150ae81614c4a565b9050919050565b600060208201905081810360008301526150ce81614c6d565b9050919050565b600060208201905081810360008301526150ee81614c90565b9050919050565b6000602082019050818103600083015261510e81614cb3565b9050919050565b6000602082019050818103600083015261512e81614cd6565b9050919050565b6000602082019050818103600083015261514e81614cf9565b9050919050565b6000602082019050818103600083015261516e81614d1c565b9050919050565b6000602082019050818103600083015261518e81614d3f565b9050919050565b600060208201905081810360008301526151ae81614d62565b9050919050565b600060208201905081810360008301526151ce81614d85565b9050919050565b600060208201905081810360008301526151ee81614da8565b9050919050565b6000602082019050818103600083015261520e81614dcb565b9050919050565b6000602082019050818103600083015261522e81614dee565b9050919050565b6000602082019050818103600083015261524e81614e11565b9050919050565b6000602082019050818103600083015261526e81614e34565b9050919050565b600060208201905061528a6000830184614f37565b92915050565b6000610100820190506152a6600083018b614f37565b6152b3602083018a614c3b565b6152c06040830189614ad6565b6152cd6060830188614c1d565b6152da6080830187614f37565b6152e760a0830186614f37565b6152f460c0830185614f37565b61530160e0830184614f37565b9998505050505050505050565b600060e082019050615323600083018a614f37565b6153306020830189614f37565b61533d6040830188614f46565b61534a6060830187614ad6565b6153576080830186614ad6565b61536460a0830185614f37565b61537160c0830184614f37565b98975050505050505050565b6000819050602082019050919050565b6000819050602082019050919050565b6000819050602082019050919050565b600081519050919050565b600081519050919050565b600081519050919050565b6000602082019050919050565b6000602082019050919050565b6000602082019050919050565b600082825260208201905092915050565b600082825260208201905092915050565b600082825260208201905092915050565b600082825260208201905092915050565b6000615444826155a9565b915061544f836155a9565b9250827fffffffffffffffffffffffffffffffffffffffffffffffffffffffffffffffff0382111561548457615483615645565b5b828201905092915050565b600061549a826155a9565b91506154a5836155a9565b9250826154b5576154b4615674565b5b828204905092915050565b60006154cb826155a9565b91506154d6836155a9565b9250817fffffffffffffffffffffffffffffffffffffffffffffffffffffffffffffffff048311821515161561550f5761550e615645565b5b828202905092915050565b6000615525826155a9565b9150615530836155a9565b92508282101561554357615542615645565b5b828203905092915050565b600061555982615589565b9050919050565b60008115159050919050565b6000819050919050565b600081905061558482615a8f565b919050565b600073ffffffffffffffffffffffffffffffffffffffff82169050919050565b6000819050919050565b600060ff82169050919050565b60006155cb82615576565b9050919050565b60006155dd826155a9565b915060008214156155f1576155f0615645565b5b600182039050919050565b6000615607826155a9565b91507fffffffffffffffffffffffffffffffffffffffffffffffffffffffffffffffff82141561563a57615639615645565b5b600182019050919050565b7f4e487b7100000000000000000000000000000000000000000000000000000000600052601160045260246000fd5b7f4e487b7100000000000000000000000000000000000000000000000000000000600052601260045260246000fd5b7f4e487b7100000000000000000000000000000000000000000000000000000000600052602160045260246000fd5b7f71756f746520746f6b656e20616c726561647920617070726f76656420696e2060008201527f7468652064657800000000000000000000000000000000000000000000000000602082015250565b7f6f6e6c792061646d696e2063616e2063616c6c20746869732066756e6374696f60008201527f6e00000000000000000000000000000000000000000000000000000000000000602082015250565b7f616d6f756e742076616c7565206d75737420626520706f736974697665000000600082015250565b7f6c61636b206f66206c6971756964697479206173206e6f206f72646572206d6160008201527f7463686564000000000000000000000000000000000000000000000000000000602082015250565b7f696e73756666696369656e7420617661696c61626c652071756f746520746f6b60008201527f656e2062616c616e636500000000000000000000000000000000000000000000602082015250565b7f696e73756666696369656e7420617661696c61626c652062616c616e63650000600082015250565b7f7072696365206d75737420626520706f73697469766500000000000000000000600082015250565b7f696e76616c6964206f7264657220696400000000000000000000000000000000600082015250565b7f696e73756666696369656e7420617661696c61626c65206261736520746f6b6560008201527f6e2062616c616e63650000000000000000000000000000000000000000000000602082015250565b7f6261736520616e642071756f7465207469636b657273206d757374206265206460008201527f6966666572656e74000000000000000000000000000000000000000000000000602082015250565b7f746f6b656e206e6f7420666f756e6420696e2074686520646578000000000000600082015250565b7f71756f746520746f6b656e206e6f74206c697374656420696e2074686520646560008201527f7800000000000000000000000000000000000000000000000000000000000000602082015250565b7f6f72646572206e6f7420666f756e640000000000000000000000000000000000600082015250565b7f6465706f73697420455448206279207472616e73666572696e6720657468657260008201527f206469726563746c7920746f207468652064657820636f6e7472616374000000602082015250565b7f746f6b656e2077697468207468652073616d65206e616d6520616c726561647960008201527f20616464656420746f2074686520646578000000000000000000000000000000602082015250565b60028110615aa057615a9f6156a3565b5b50565b615aac8161554e565b8114615ab757600080fd5b50565b615ac381615560565b8114615ace57600080fd5b50565b615ada8161556c565b8114615ae557600080fd5b50565b60028110615af557600080fd5b50565b615b01816155a9565b8114615b0c57600080fd5b50565b615b18816155b3565b8114615b2357600080fd5b5056fea26469706673582212206f57c06cccdc73ede6aca70fe04bd5b9ec1bbf1b6e92426a0ed1ca4cdeeaa71764736f6c63430008040033",
  "linkReferences": {},
  "deployedLinkReferences": {},
  "address": "0x38BEc8EEFDfAa8d7f5a76E67081BBd99F71DB9c0"
}